{
  "_format": "hh-sol-artifact-1",
  "contractName": "Tips",
  "sourceName": "contracts/Tips.sol",
  "abi": [
    {
      "inputs": [],
      "stateMutability": "nonpayable",
      "type": "constructor"
    },
    {
      "inputs": [
        {
          "internalType": "address",
          "name": "token",
          "type": "address"
        },
        {
          "internalType": "address",
          "name": "account",
          "type": "address"
        }
      ],
      "name": "balanceOf",
      "outputs": [
        {
          "internalType": "uint256",
          "name": "",
          "type": "uint256"
        }
      ],
      "stateMutability": "view",
      "type": "function"
    },
    {
      "inputs": [
        {
          "internalType": "address",
          "name": "token",
          "type": "address"
        }
      ],
      "name": "balanceOfContract",
      "outputs": [
        {
          "internalType": "uint256",
          "name": "",
          "type": "uint256"
        }
      ],
      "stateMutability": "view",
      "type": "function"
    },
    {
      "inputs": [
        {
          "internalType": "address",
          "name": "token",
          "type": "address"
        },
        {
          "internalType": "uint256",
          "name": "amount",
          "type": "uint256"
        }
      ],
      "name": "claimTokens",
      "outputs": [],
      "stateMutability": "nonpayable",
      "type": "function"
    },
    {
      "inputs": [
        {
          "internalType": "uint256",
          "name": "amount",
          "type": "uint256"
        },
        {
          "internalType": "address",
          "name": "token",
          "type": "address"
        }
      ],
      "name": "deposit",
      "outputs": [],
      "stateMutability": "nonpayable",
      "type": "function"
    }
  ],
  "bytecode": "0x608060405234801561001057600080fd5b50610bcc806100206000396000f3fe608060405234801561001057600080fd5b506004361061004c5760003560e01c80636e553f6514610051578063dd48087f1461006d578063f7888aec1461009d578063fe417fa5146100cd575b600080fd5b61006b6004803603810190610066919061066f565b6100e9565b005b610087600480360381019061008291906106af565b610345565b60405161009491906106eb565b60405180910390f35b6100b760048036038101906100b29190610706565b6103c8565b6040516100c491906106eb565b60405180910390f35b6100e760048036038101906100e29190610746565b61044e565b005b6000821161012c576040517f08c379a000000000000000000000000000000000000000000000000000000000815260040161012390610809565b60405180910390fd5b60008173ffffffffffffffffffffffffffffffffffffffff1663dd62ed3e33306040518363ffffffff1660e01b8152600401610169929190610838565b602060405180830381865afa158015610186573d6000803e3d6000fd5b505050506040513d601f19601f820116820180604052508101906101aa9190610876565b9050828110156101ef576040517f08c379a00000000000000000000000000000000000000000000000000000000081526004016101e6906108ef565b60405180910390fd5b8173ffffffffffffffffffffffffffffffffffffffff166323b872dd3330866040518463ffffffff1660e01b815260040161022c9392919061090f565b6020604051808303816000875af115801561024b573d6000803e3d6000fd5b505050506040513d601f19601f8201168201806040525081019061026f919061097e565b6102ae576040517f08c379a00000000000000000000000000000000000000000000000000000000081526004016102a5906109f7565b60405180910390fd5b826000808473ffffffffffffffffffffffffffffffffffffffff1673ffffffffffffffffffffffffffffffffffffffff16815260200190815260200160002060003373ffffffffffffffffffffffffffffffffffffffff1673ffffffffffffffffffffffffffffffffffffffff16815260200190815260200160002060008282546103399190610a46565b92505081905550505050565b60008173ffffffffffffffffffffffffffffffffffffffff166370a08231306040518263ffffffff1660e01b81526004016103809190610a7a565b602060405180830381865afa15801561039d573d6000803e3d6000fd5b505050506040513d601f19601f820116820180604052508101906103c19190610876565b9050919050565b60008060008473ffffffffffffffffffffffffffffffffffffffff1673ffffffffffffffffffffffffffffffffffffffff16815260200190815260200160002060008373ffffffffffffffffffffffffffffffffffffffff1673ffffffffffffffffffffffffffffffffffffffff16815260200190815260200160002054905092915050565b60008111610491576040517f08c379a000000000000000000000000000000000000000000000000000000000815260040161048890610ae1565b60405180910390fd5b60008273ffffffffffffffffffffffffffffffffffffffff166370a08231306040518263ffffffff1660e01b81526004016104cc9190610a7a565b602060405180830381865afa1580156104e9573d6000803e3d6000fd5b505050506040513d601f19601f8201168201806040525081019061050d9190610876565b905081811015610552576040517f08c379a000000000000000000000000000000000000000000000000000000000815260040161054990610b4d565b60405180910390fd5b8273ffffffffffffffffffffffffffffffffffffffff1663a9059cbb33846040518363ffffffff1660e01b815260040161058d929190610b6d565b6020604051808303816000875af11580156105ac573d6000803e3d6000fd5b505050506040513d601f19601f820116820180604052508101906105d0919061097e565b50505050565b600080fd5b6000819050919050565b6105ee816105db565b81146105f957600080fd5b50565b60008135905061060b816105e5565b92915050565b600073ffffffffffffffffffffffffffffffffffffffff82169050919050565b600061063c82610611565b9050919050565b61064c81610631565b811461065757600080fd5b50565b60008135905061066981610643565b92915050565b60008060408385031215610686576106856105d6565b5b6000610694858286016105fc565b92505060206106a58582860161065a565b9150509250929050565b6000602082840312156106c5576106c46105d6565b5b60006106d38482850161065a565b91505092915050565b6106e5816105db565b82525050565b600060208201905061070060008301846106dc565b92915050565b6000806040838503121561071d5761071c6105d6565b5b600061072b8582860161065a565b925050602061073c8582860161065a565b9150509250929050565b6000806040838503121561075d5761075c6105d6565b5b600061076b8582860161065a565b925050602061077c858286016105fc565b9150509250929050565b600082825260208201905092915050565b7f44656e6f6d696e6174696f6e2073686f756c642062652067726561746572207460008201527f68616e2030000000000000000000000000000000000000000000000000000000602082015250565b60006107f3602583610786565b91506107fe82610797565b604082019050919050565b60006020820190508181036000830152610822816107e6565b9050919050565b61083281610631565b82525050565b600060408201905061084d6000830185610829565b61085a6020830184610829565b9392505050565b600081519050610870816105e5565b92915050565b60006020828403121561088c5761088b6105d6565b5b600061089a84828501610861565b91505092915050565b7f416c6c6f77616e6365206973206e6f7420656e6f756768000000000000000000600082015250565b60006108d9601783610786565b91506108e4826108a3565b602082019050919050565b60006020820190508181036000830152610908816108cc565b9050919050565b60006060820190506109246000830186610829565b6109316020830185610829565b61093e60408301846106dc565b949350505050565b60008115159050919050565b61095b81610946565b811461096657600080fd5b50565b60008151905061097881610952565b92915050565b600060208284031215610994576109936105d6565b5b60006109a284828501610969565b91505092915050565b7f5472616e73666572206661696c65640000000000000000000000000000000000600082015250565b60006109e1600f83610786565b91506109ec826109ab565b602082019050919050565b60006020820190508181036000830152610a10816109d4565b9050919050565b7f4e487b7100000000000000000000000000000000000000000000000000000000600052601160045260246000fd5b6000610a51826105db565b9150610a5c836105db565b9250828201905080821115610a7457610a73610a17565b5b92915050565b6000602082019050610a8f6000830184610829565b92915050565b7f416d6f756e74206d7573742062652067726561746572207468616e2030000000600082015250565b6000610acb601d83610786565b9150610ad682610a95565b602082019050919050565b60006020820190508181036000830152610afa81610abe565b9050919050565b7f436f6e747261637427732062616c616e6365206973206e6f7420656e6f756768600082015250565b6000610b37602083610786565b9150610b4282610b01565b602082019050919050565b60006020820190508181036000830152610b6681610b2a565b9050919050565b6000604082019050610b826000830185610829565b610b8f60208301846106dc565b939250505056fea2646970667358221220d51883b2783706b9775e25ed88602d56d2867970de903d27d9e28ae2c87ab9d264736f6c63430008180033",
  "linkReferences": {},
  "deployedLinkReferences": {}
}